{
  "_format": "hh-sol-artifact-1",
  "contractName": "IDLEToken",
  "sourceName": "contracts/IDLEToken.sol",
  "abi": [
    {
      "inputs": [
        {
          "internalType": "address",
          "name": "initialOwner",
          "type": "address"
        },
        {
          "internalType": "uint256",
          "name": "initialSupply",
          "type": "uint256"
        }
      ],
      "stateMutability": "nonpayable",
      "type": "constructor"
    },
    {
      "inputs": [
        {
          "internalType": "address",
          "name": "spender",
          "type": "address"
        },
        {
          "internalType": "uint256",
          "name": "allowance",
          "type": "uint256"
        },
        {
          "internalType": "uint256",
          "name": "needed",
          "type": "uint256"
        }
      ],
      "name": "ERC20InsufficientAllowance",
      "type": "error"
    },
    {
      "inputs": [
        {
          "internalType": "address",
          "name": "sender",
          "type": "address"
        },
        {
          "internalType": "uint256",
          "name": "balance",
          "type": "uint256"
        },
        {
          "internalType": "uint256",
          "name": "needed",
          "type": "uint256"
        }
      ],
      "name": "ERC20InsufficientBalance",
      "type": "error"
    },
    {
      "inputs": [
        {
          "internalType": "address",
          "name": "approver",
          "type": "address"
        }
      ],
      "name": "ERC20InvalidApprover",
      "type": "error"
    },
    {
      "inputs": [
        {
          "internalType": "address",
          "name": "receiver",
          "type": "address"
        }
      ],
      "name": "ERC20InvalidReceiver",
      "type": "error"
    },
    {
      "inputs": [
        {
          "internalType": "address",
          "name": "sender",
          "type": "address"
        }
      ],
      "name": "ERC20InvalidSender",
      "type": "error"
    },
    {
      "inputs": [
        {
          "internalType": "address",
          "name": "spender",
          "type": "address"
        }
      ],
      "name": "ERC20InvalidSpender",
      "type": "error"
    },
    {
      "inputs": [
        {
          "internalType": "address",
          "name": "owner",
          "type": "address"
        }
      ],
      "name": "OwnableInvalidOwner",
      "type": "error"
    },
    {
      "inputs": [
        {
          "internalType": "address",
          "name": "account",
          "type": "address"
        }
      ],
      "name": "OwnableUnauthorizedAccount",
      "type": "error"
    },
    {
      "anonymous": false,
      "inputs": [
        {
          "indexed": true,
          "internalType": "address",
          "name": "owner",
          "type": "address"
        },
        {
          "indexed": true,
          "internalType": "address",
          "name": "spender",
          "type": "address"
        },
        {
          "indexed": false,
          "internalType": "uint256",
          "name": "value",
          "type": "uint256"
        }
      ],
      "name": "Approval",
      "type": "event"
    },
    {
      "anonymous": false,
      "inputs": [
        {
          "indexed": true,
          "internalType": "address",
          "name": "previousOwner",
          "type": "address"
        },
        {
          "indexed": true,
          "internalType": "address",
          "name": "newOwner",
          "type": "address"
        }
      ],
      "name": "OwnershipTransferred",
      "type": "event"
    },
    {
      "anonymous": false,
      "inputs": [
        {
          "indexed": true,
          "internalType": "address",
          "name": "buyer",
          "type": "address"
        },
        {
          "indexed": false,
          "internalType": "uint256",
          "name": "amount",
          "type": "uint256"
        },
        {
          "indexed": false,
          "internalType": "uint256",
          "name": "cost",
          "type": "uint256"
        }
      ],
      "name": "TokensPurchased",
      "type": "event"
    },
    {
      "anonymous": false,
      "inputs": [
        {
          "indexed": true,
          "internalType": "address",
          "name": "from",
          "type": "address"
        },
        {
          "indexed": true,
          "internalType": "address",
          "name": "to",
          "type": "address"
        },
        {
          "indexed": false,
          "internalType": "uint256",
          "name": "value",
          "type": "uint256"
        }
      ],
      "name": "Transfer",
      "type": "event"
    },
    {
      "inputs": [
        {
          "internalType": "address",
          "name": "owner",
          "type": "address"
        },
        {
          "internalType": "address",
          "name": "spender",
          "type": "address"
        }
      ],
      "name": "allowance",
      "outputs": [
        {
          "internalType": "uint256",
          "name": "",
          "type": "uint256"
        }
      ],
      "stateMutability": "view",
      "type": "function"
    },
    {
      "inputs": [
        {
          "internalType": "address",
          "name": "spender",
          "type": "address"
        },
        {
          "internalType": "uint256",
          "name": "value",
          "type": "uint256"
        }
      ],
      "name": "approve",
      "outputs": [
        {
          "internalType": "bool",
          "name": "",
          "type": "bool"
        }
      ],
      "stateMutability": "nonpayable",
      "type": "function"
    },
    {
      "inputs": [
        {
          "internalType": "address",
          "name": "account",
          "type": "address"
        }
      ],
      "name": "balanceOf",
      "outputs": [
        {
          "internalType": "uint256",
          "name": "",
          "type": "uint256"
        }
      ],
      "stateMutability": "view",
      "type": "function"
    },
    {
      "inputs": [
        {
          "internalType": "uint256",
          "name": "value",
          "type": "uint256"
        }
      ],
      "name": "burn",
      "outputs": [],
      "stateMutability": "nonpayable",
      "type": "function"
    },
    {
      "inputs": [
        {
          "internalType": "uint256",
          "name": "amount",
          "type": "uint256"
        }
      ],
      "name": "buyTokens",
      "outputs": [],
      "stateMutability": "payable",
      "type": "function"
    },
    {
      "inputs": [],
      "name": "decimals",
      "outputs": [
        {
          "internalType": "uint8",
          "name": "",
          "type": "uint8"
        }
      ],
      "stateMutability": "view",
      "type": "function"
    },
    {
      "inputs": [],
      "name": "name",
      "outputs": [
        {
          "internalType": "string",
          "name": "",
          "type": "string"
        }
      ],
      "stateMutability": "view",
      "type": "function"
    },
    {
      "inputs": [],
      "name": "owner",
      "outputs": [
        {
          "internalType": "address",
          "name": "",
          "type": "address"
        }
      ],
      "stateMutability": "view",
      "type": "function"
    },
    {
      "inputs": [],
      "name": "renounceOwnership",
      "outputs": [],
      "stateMutability": "nonpayable",
      "type": "function"
    },
    {
      "inputs": [],
      "name": "symbol",
      "outputs": [
        {
          "internalType": "string",
          "name": "",
          "type": "string"
        }
      ],
      "stateMutability": "view",
      "type": "function"
    },
    {
      "inputs": [],
      "name": "tokenPrice",
      "outputs": [
        {
          "internalType": "uint256",
          "name": "",
          "type": "uint256"
        }
      ],
      "stateMutability": "view",
      "type": "function"
    },
    {
      "inputs": [],
      "name": "totalSupply",
      "outputs": [
        {
          "internalType": "uint256",
          "name": "",
          "type": "uint256"
        }
      ],
      "stateMutability": "view",
      "type": "function"
    },
    {
      "inputs": [
        {
          "internalType": "address",
          "name": "to",
          "type": "address"
        },
        {
          "internalType": "uint256",
          "name": "value",
          "type": "uint256"
        }
      ],
      "name": "transfer",
      "outputs": [
        {
          "internalType": "bool",
          "name": "",
          "type": "bool"
        }
      ],
      "stateMutability": "nonpayable",
      "type": "function"
    },
    {
      "inputs": [
        {
          "internalType": "address",
          "name": "from",
          "type": "address"
        },
        {
          "internalType": "address",
          "name": "to",
          "type": "address"
        },
        {
          "internalType": "uint256",
          "name": "value",
          "type": "uint256"
        }
      ],
      "name": "transferFrom",
      "outputs": [
        {
          "internalType": "bool",
          "name": "",
          "type": "bool"
        }
      ],
      "stateMutability": "nonpayable",
      "type": "function"
    },
    {
      "inputs": [
        {
          "internalType": "address",
          "name": "newOwner",
          "type": "address"
        }
      ],
      "name": "transferOwnership",
      "outputs": [],
      "stateMutability": "nonpayable",
      "type": "function"
    },
    {
      "inputs": [],
      "name": "withdraw",
      "outputs": [],
      "stateMutability": "nonpayable",
      "type": "function"
    }
  ],
  "bytecode": "0x608060405264e8d4a5100060065534801561001957600080fd5b50604051612529380380612529833981810160405281019061003b91906105ab565b816040518060400160405280600481526020017f49646c65000000000000000000000000000000000000000000000000000000008152506040518060400160405280600381526020017f49444c000000000000000000000000000000000000000000000000000000000081525081600390816100b79190610831565b5080600490816100c79190610831565b505050600073ffffffffffffffffffffffffffffffffffffffff168173ffffffffffffffffffffffffffffffffffffffff160361013c5760006040517f1e4fbdf70000000000000000000000000000000000000000000000000000000081526004016101339190610912565b60405180910390fd5b61014b8161019660201b60201c565b5061015b8261019660201b60201c565b61018f8261016d61025c60201b60201c565b600a6101799190610a9c565b836101849190610ae7565b61026560201b60201c565b5050610bbe565b6000600560009054906101000a900473ffffffffffffffffffffffffffffffffffffffff16905081600560006101000a81548173ffffffffffffffffffffffffffffffffffffffff021916908373ffffffffffffffffffffffffffffffffffffffff1602179055508173ffffffffffffffffffffffffffffffffffffffff168173ffffffffffffffffffffffffffffffffffffffff167f8be0079c531659141344cd1fd0a4f28419497f9722a3daafe3b4186f6b6457e060405160405180910390a35050565b60006012905090565b600073ffffffffffffffffffffffffffffffffffffffff168273ffffffffffffffffffffffffffffffffffffffff16036102d75760006040517fec442f050000000000000000000000000000000000000000000000000000000081526004016102ce9190610912565b60405180910390fd5b6102e9600083836102ed60201b60201c565b5050565b600073ffffffffffffffffffffffffffffffffffffffff168373ffffffffffffffffffffffffffffffffffffffff160361033f5780600260008282546103339190610b29565b92505081905550610412565b60008060008573ffffffffffffffffffffffffffffffffffffffff1673ffffffffffffffffffffffffffffffffffffffff168152602001908152602001600020549050818110156103cb578381836040517fe450d38c0000000000000000000000000000000000000000000000000000000081526004016103c293929190610b6c565b60405180910390fd5b8181036000808673ffffffffffffffffffffffffffffffffffffffff1673ffffffffffffffffffffffffffffffffffffffff16815260200190815260200160002081905550505b600073ffffffffffffffffffffffffffffffffffffffff168273ffffffffffffffffffffffffffffffffffffffff160361045b57806002600082825403925050819055506104a8565b806000808473ffffffffffffffffffffffffffffffffffffffff1673ffffffffffffffffffffffffffffffffffffffff168152602001908152602001600020600082825401925050819055505b8173ffffffffffffffffffffffffffffffffffffffff168373ffffffffffffffffffffffffffffffffffffffff167fddf252ad1be2c89b69c2b068fc378daa952ba7f163c4a11628f55a4df523b3ef836040516105059190610ba3565b60405180910390a3505050565b600080fd5b600073ffffffffffffffffffffffffffffffffffffffff82169050919050565b600061054282610517565b9050919050565b61055281610537565b811461055d57600080fd5b50565b60008151905061056f81610549565b92915050565b6000819050919050565b61058881610575565b811461059357600080fd5b50565b6000815190506105a58161057f565b92915050565b600080604083850312156105c2576105c1610512565b5b60006105d085828601610560565b92505060206105e185828601610596565b9150509250929050565b600081519050919050565b7f4e487b7100000000000000000000000000000000000000000000000000000000600052604160045260246000fd5b7f4e487b7100000000000000000000000000000000000000000000000000000000600052602260045260246000fd5b6000600282049050600182168061066c57607f821691505b60208210810361067f5761067e610625565b5b50919050565b60008190508160005260206000209050919050565b60006020601f8301049050919050565b600082821b905092915050565b6000600883026106e77fffffffffffffffffffffffffffffffffffffffffffffffffffffffffffffffff826106aa565b6106f186836106aa565b95508019841693508086168417925050509392505050565b6000819050919050565b600061072e61072961072484610575565b610709565b610575565b9050919050565b6000819050919050565b61074883610713565b61075c61075482610735565b8484546106b7565b825550505050565b600090565b610771610764565b61077c81848461073f565b505050565b5b818110156107a057610795600082610769565b600181019050610782565b5050565b601f8211156107e5576107b681610685565b6107bf8461069a565b810160208510156107ce578190505b6107e26107da8561069a565b830182610781565b50505b505050565b600082821c905092915050565b6000610808600019846008026107ea565b1980831691505092915050565b600061082183836107f7565b9150826002028217905092915050565b61083a826105eb565b67ffffffffffffffff811115610853576108526105f6565b5b61085d8254610654565b6108688282856107a4565b600060209050601f83116001811461089b5760008415610889578287015190505b6108938582610815565b8655506108fb565b601f1984166108a986610685565b60005b828110156108d1578489015182556001820191506020850194506020810190506108ac565b868310156108ee57848901516108ea601f8916826107f7565b8355505b6001600288020188555050505b505050505050565b61090c81610537565b82525050565b60006020820190506109276000830184610903565b92915050565b7f4e487b7100000000000000000000000000000000000000000000000000000000600052601160045260246000fd5b60008160011c9050919050565b6000808291508390505b60018511156109b35780860481111561098f5761098e61092d565b5b600185161561099e5780820291505b80810290506109ac8561095c565b9450610973565b94509492505050565b6000826109cc5760019050610a88565b816109da5760009050610a88565b81600181146109f057600281146109fa57610a29565b6001915050610a88565b60ff841115610a0c57610a0b61092d565b5b8360020a915084821115610a2357610a2261092d565b5b50610a88565b5060208310610133831016604e8410600b8410161715610a5e5782820a905083811115610a5957610a5861092d565b5b610a88565b610a6b8484846001610969565b92509050818404811115610a8257610a8161092d565b5b81810290505b9392505050565b600060ff82169050919050565b6000610aa782610575565b9150610ab283610a8f565b9250610adf7fffffffffffffffffffffffffffffffffffffffffffffffffffffffffffffffff84846109bc565b905092915050565b6000610af282610575565b9150610afd83610575565b9250828202610b0b81610575565b91508282048414831517610b2257610b2161092d565b5b5092915050565b6000610b3482610575565b9150610b3f83610575565b9250828201905080821115610b5757610b5661092d565b5b92915050565b610b6681610575565b82525050565b6000606082019050610b816000830186610903565b610b8e6020830185610b5d565b610b9b6040830184610b5d565b949350505050565b6000602082019050610bb86000830184610b5d565b92915050565b61195c80610bcd6000396000f3fe6080604052600436106100f35760003560e01c806370a082311161008a57806395d89b411161005957806395d89b41146102f9578063a9059cbb14610324578063dd62ed3e14610361578063f2fde38b1461039e576100f3565b806370a082311461024f578063715018a61461028c5780637ff9b596146102a35780638da5cb5b146102ce576100f3565b8063313ce567116100c6578063313ce567146101c85780633610724e146101f35780633ccfd60b1461020f57806342966c6814610226576100f3565b806306fdde03146100f8578063095ea7b31461012357806318160ddd1461016057806323b872dd1461018b575b600080fd5b34801561010457600080fd5b5061010d6103c7565b60405161011a919061118a565b60405180910390f35b34801561012f57600080fd5b5061014a60048036038101906101459190611245565b610459565b60405161015791906112a0565b60405180910390f35b34801561016c57600080fd5b5061017561047c565b60405161018291906112ca565b60405180910390f35b34801561019757600080fd5b506101b260048036038101906101ad91906112e5565b610486565b6040516101bf91906112a0565b60405180910390f35b3480156101d457600080fd5b506101dd6104b5565b6040516101ea9190611354565b60405180910390f35b61020d6004803603810190610208919061136f565b6104be565b005b34801561021b57600080fd5b50610224610632565b005b34801561023257600080fd5b5061024d6004803603810190610248919061136f565b61068a565b005b34801561025b57600080fd5b506102766004803603810190610271919061139c565b61073e565b60405161028391906112ca565b60405180910390f35b34801561029857600080fd5b506102a1610786565b005b3480156102af57600080fd5b506102b861079a565b6040516102c591906112ca565b60405180910390f35b3480156102da57600080fd5b506102e36107a0565b6040516102f091906113d8565b60405180910390f35b34801561030557600080fd5b5061030e6107ca565b60405161031b919061118a565b60405180910390f35b34801561033057600080fd5b5061034b60048036038101906103469190611245565b61085c565b60405161035891906112a0565b60405180910390f35b34801561036d57600080fd5b50610388600480360381019061038391906113f3565b61087f565b60405161039591906112ca565b60405180910390f35b3480156103aa57600080fd5b506103c560048036038101906103c0919061139c565b610906565b005b6060600380546103d690611462565b80601f016020809104026020016040519081016040528092919081815260200182805461040290611462565b801561044f5780601f106104245761010080835404028352916020019161044f565b820191906000526020600020905b81548152906001019060200180831161043257829003601f168201915b5050505050905090565b60008061046461098c565b9050610471818585610994565b600191505092915050565b6000600254905090565b60008061049161098c565b905061049e8582856109a6565b6104a9858585610a3b565b60019150509392505050565b60006012905090565b60008111610501576040517f08c379a00000000000000000000000000000000000000000000000000000000081526004016104f8906114df565b60405180910390fd5b600060065482610511919061152e565b905080341015610556576040517f08c379a000000000000000000000000000000000000000000000000000000000815260040161054d906115bc565b60405180910390fd5b60006105606104b5565b600a61056c919061170f565b83610577919061152e565b90508061058a6105856107a0565b61073e565b10156105cb576040517f08c379a00000000000000000000000000000000000000000000000000000000081526004016105c2906117a6565b60405180910390fd5b6105dd6105d66107a0565b3383610a3b565b3373ffffffffffffffffffffffffffffffffffffffff167f8fafebcaf9d154343dad25669bfa277f4fbacd7ac6b0c4fed522580e040a0f3382846040516106259291906117c6565b60405180910390a2505050565b61063a610b2f565b6106426107a0565b73ffffffffffffffffffffffffffffffffffffffff166108fc479081150290604051600060405180830381858888f19350505050158015610687573d6000803e3d6000fd5b50565b610692610b2f565b61069a6104b5565b600a6106a6919061170f565b7fffffffffffffffffffffffffffffffffffffffffffffffffffffffffffffffff6106d1919061181e565b811115610713576040517f08c379a000000000000000000000000000000000000000000000000000000000815260040161070a9061189b565b60405180910390fd5b61073b3361071f6104b5565b600a61072b919061170f565b83610736919061152e565b610bb6565b50565b60008060008373ffffffffffffffffffffffffffffffffffffffff1673ffffffffffffffffffffffffffffffffffffffff168152602001908152602001600020549050919050565b61078e610b2f565b6107986000610c38565b565b60065481565b6000600560009054906101000a900473ffffffffffffffffffffffffffffffffffffffff16905090565b6060600480546107d990611462565b80601f016020809104026020016040519081016040528092919081815260200182805461080590611462565b80156108525780601f1061082757610100808354040283529160200191610852565b820191906000526020600020905b81548152906001019060200180831161083557829003601f168201915b5050505050905090565b60008061086761098c565b9050610874818585610a3b565b600191505092915050565b6000600160008473ffffffffffffffffffffffffffffffffffffffff1673ffffffffffffffffffffffffffffffffffffffff16815260200190815260200160002060008373ffffffffffffffffffffffffffffffffffffffff1673ffffffffffffffffffffffffffffffffffffffff16815260200190815260200160002054905092915050565b61090e610b2f565b600073ffffffffffffffffffffffffffffffffffffffff168173ffffffffffffffffffffffffffffffffffffffff16036109805760006040517f1e4fbdf700000000000000000000000000000000000000000000000000000000815260040161097791906113d8565b60405180910390fd5b61098981610c38565b50565b600033905090565b6109a18383836001610cfe565b505050565b60006109b2848461087f565b90507fffffffffffffffffffffffffffffffffffffffffffffffffffffffffffffffff811015610a355781811015610a25578281836040517ffb8f41b2000000000000000000000000000000000000000000000000000000008152600401610a1c939291906118bb565b60405180910390fd5b610a3484848484036000610cfe565b5b50505050565b600073ffffffffffffffffffffffffffffffffffffffff168373ffffffffffffffffffffffffffffffffffffffff1603610aad5760006040517f96c6fd1e000000000000000000000000000000000000000000000000000000008152600401610aa491906113d8565b60405180910390fd5b600073ffffffffffffffffffffffffffffffffffffffff168273ffffffffffffffffffffffffffffffffffffffff1603610b1f5760006040517fec442f05000000000000000000000000000000000000000000000000000000008152600401610b1691906113d8565b60405180910390fd5b610b2a838383610ed5565b505050565b610b3761098c565b73ffffffffffffffffffffffffffffffffffffffff16610b556107a0565b73ffffffffffffffffffffffffffffffffffffffff1614610bb457610b7861098c565b6040517f118cdaa7000000000000000000000000000000000000000000000000000000008152600401610bab91906113d8565b60405180910390fd5b565b600073ffffffffffffffffffffffffffffffffffffffff168273ffffffffffffffffffffffffffffffffffffffff1603610c285760006040517f96c6fd1e000000000000000000000000000000000000000000000000000000008152600401610c1f91906113d8565b60405180910390fd5b610c3482600083610ed5565b5050565b6000600560009054906101000a900473ffffffffffffffffffffffffffffffffffffffff16905081600560006101000a81548173ffffffffffffffffffffffffffffffffffffffff021916908373ffffffffffffffffffffffffffffffffffffffff1602179055508173ffffffffffffffffffffffffffffffffffffffff168173ffffffffffffffffffffffffffffffffffffffff167f8be0079c531659141344cd1fd0a4f28419497f9722a3daafe3b4186f6b6457e060405160405180910390a35050565b600073ffffffffffffffffffffffffffffffffffffffff168473ffffffffffffffffffffffffffffffffffffffff1603610d705760006040517fe602df05000000000000000000000000000000000000000000000000000000008152600401610d6791906113d8565b60405180910390fd5b600073ffffffffffffffffffffffffffffffffffffffff168373ffffffffffffffffffffffffffffffffffffffff1603610de25760006040517f94280d62000000000000000000000000000000000000000000000000000000008152600401610dd991906113d8565b60405180910390fd5b81600160008673ffffffffffffffffffffffffffffffffffffffff1673ffffffffffffffffffffffffffffffffffffffff16815260200190815260200160002060008573ffffffffffffffffffffffffffffffffffffffff1673ffffffffffffffffffffffffffffffffffffffff168152602001908152602001600020819055508015610ecf578273ffffffffffffffffffffffffffffffffffffffff168473ffffffffffffffffffffffffffffffffffffffff167f8c5be1e5ebec7d5bd14f71427d1e84f3dd0314c0f7b2291e5b200ac8c7c3b92584604051610ec691906112ca565b60405180910390a35b50505050565b600073ffffffffffffffffffffffffffffffffffffffff168373ffffffffffffffffffffffffffffffffffffffff1603610f27578060026000828254610f1b91906118f2565b92505081905550610ffa565b60008060008573ffffffffffffffffffffffffffffffffffffffff1673ffffffffffffffffffffffffffffffffffffffff16815260200190815260200160002054905081811015610fb3578381836040517fe450d38c000000000000000000000000000000000000000000000000000000008152600401610faa939291906118bb565b60405180910390fd5b8181036000808673ffffffffffffffffffffffffffffffffffffffff1673ffffffffffffffffffffffffffffffffffffffff16815260200190815260200160002081905550505b600073ffffffffffffffffffffffffffffffffffffffff168273ffffffffffffffffffffffffffffffffffffffff16036110435780600260008282540392505081905550611090565b806000808473ffffffffffffffffffffffffffffffffffffffff1673ffffffffffffffffffffffffffffffffffffffff168152602001908152602001600020600082825401925050819055505b8173ffffffffffffffffffffffffffffffffffffffff168373ffffffffffffffffffffffffffffffffffffffff167fddf252ad1be2c89b69c2b068fc378daa952ba7f163c4a11628f55a4df523b3ef836040516110ed91906112ca565b60405180910390a3505050565b600081519050919050565b600082825260208201905092915050565b60005b83811015611134578082015181840152602081019050611119565b60008484015250505050565b6000601f19601f8301169050919050565b600061115c826110fa565b6111668185611105565b9350611176818560208601611116565b61117f81611140565b840191505092915050565b600060208201905081810360008301526111a48184611151565b905092915050565b600080fd5b600073ffffffffffffffffffffffffffffffffffffffff82169050919050565b60006111dc826111b1565b9050919050565b6111ec816111d1565b81146111f757600080fd5b50565b600081359050611209816111e3565b92915050565b6000819050919050565b6112228161120f565b811461122d57600080fd5b50565b60008135905061123f81611219565b92915050565b6000806040838503121561125c5761125b6111ac565b5b600061126a858286016111fa565b925050602061127b85828601611230565b9150509250929050565b60008115159050919050565b61129a81611285565b82525050565b60006020820190506112b56000830184611291565b92915050565b6112c48161120f565b82525050565b60006020820190506112df60008301846112bb565b92915050565b6000806000606084860312156112fe576112fd6111ac565b5b600061130c868287016111fa565b935050602061131d868287016111fa565b925050604061132e86828701611230565b9150509250925092565b600060ff82169050919050565b61134e81611338565b82525050565b60006020820190506113696000830184611345565b92915050565b600060208284031215611385576113846111ac565b5b600061139384828501611230565b91505092915050565b6000602082840312156113b2576113b16111ac565b5b60006113c0848285016111fa565b91505092915050565b6113d2816111d1565b82525050565b60006020820190506113ed60008301846113c9565b92915050565b6000806040838503121561140a576114096111ac565b5b6000611418858286016111fa565b9250506020611429858286016111fa565b9150509250929050565b7f4e487b7100000000000000000000000000000000000000000000000000000000600052602260045260246000fd5b6000600282049050600182168061147a57607f821691505b60208210810361148d5761148c611433565b5b50919050565b7f416d6f756e74206d7573742062652067726561746572207468616e2030000000600082015250565b60006114c9601d83611105565b91506114d482611493565b602082019050919050565b600060208201905081810360008301526114f8816114bc565b9050919050565b7f4e487b7100000000000000000000000000000000000000000000000000000000600052601160045260246000fd5b60006115398261120f565b91506115448361120f565b92508282026115528161120f565b91508282048414831517611569576115686114ff565b5b5092915050565b7f496e73756666696369656e74204554482073656e740000000000000000000000600082015250565b60006115a6601583611105565b91506115b182611570565b602082019050919050565b600060208201905081810360008301526115d581611599565b9050919050565b60008160011c9050919050565b6000808291508390505b60018511156116335780860481111561160f5761160e6114ff565b5b600185161561161e5780820291505b808102905061162c856115dc565b94506115f3565b94509492505050565b60008261164c5760019050611708565b8161165a5760009050611708565b8160018114611670576002811461167a576116a9565b6001915050611708565b60ff84111561168c5761168b6114ff565b5b8360020a9150848211156116a3576116a26114ff565b5b50611708565b5060208310610133831016604e8410600b84101617156116de5782820a9050838111156116d9576116d86114ff565b5b611708565b6116eb84848460016115e9565b92509050818404811115611702576117016114ff565b5b81810290505b9392505050565b600061171a8261120f565b915061172583611338565b92506117527fffffffffffffffffffffffffffffffffffffffffffffffffffffffffffffffff848461163c565b905092915050565b7f4e6f7420656e6f75676820746f6b656e7320696e20636f6e7472616374000000600082015250565b6000611790601d83611105565b915061179b8261175a565b602082019050919050565b600060208201905081810360008301526117bf81611783565b9050919050565b60006040820190506117db60008301856112bb565b6117e860208301846112bb565b9392505050565b7f4e487b7100000000000000000000000000000000000000000000000000000000600052601260045260246000fd5b60006118298261120f565b91506118348361120f565b925082611844576118436117ef565b5b828204905092915050565b7f416d6f756e7420746f6f206c6172676500000000000000000000000000000000600082015250565b6000611885601083611105565b91506118908261184f565b602082019050919050565b600060208201905081810360008301526118b481611878565b9050919050565b60006060820190506118d060008301866113c9565b6118dd60208301856112bb565b6118ea60408301846112bb565b949350505050565b60006118fd8261120f565b91506119088361120f565b92508282019050808211156119205761191f6114ff565b5b9291505056fea264697066735822122025aca8b7c86be1ca8078ec9e9294bccf2f1ed9dc3650fb5a638cd55cb3506fec64736f6c634300081c0033",
  "linkReferences": {},
  "deployedLinkReferences": {}
}