{
  "_format": "hh-sol-artifact-1",
  "contractName": "FactoryExchange",
  "sourceName": "contracts/FactoryExchange.sol",
  "abi": [
    {
      "inputs": [
        {
          "internalType": "address",
          "name": "initialOwner",
          "type": "address"
        },
        {
          "internalType": "address",
          "name": "_idleToken",
          "type": "address"
        }
      ],
      "stateMutability": "nonpayable",
      "type": "constructor"
    },
    {
      "inputs": [
        {
          "internalType": "address",
          "name": "owner",
          "type": "address"
        }
      ],
      "name": "OwnableInvalidOwner",
      "type": "error"
    },
    {
      "inputs": [
        {
          "internalType": "address",
          "name": "account",
          "type": "address"
        }
      ],
      "name": "OwnableUnauthorizedAccount",
      "type": "error"
    },
    {
      "anonymous": false,
      "inputs": [
        {
          "indexed": true,
          "internalType": "address",
          "name": "previousOwner",
          "type": "address"
        },
        {
          "indexed": true,
          "internalType": "address",
          "name": "newOwner",
          "type": "address"
        }
      ],
      "name": "OwnershipTransferred",
      "type": "event"
    },
    {
      "anonymous": false,
      "inputs": [
        {
          "indexed": true,
          "internalType": "address",
          "name": "creator",
          "type": "address"
        },
        {
          "indexed": false,
          "internalType": "address",
          "name": "tokenAddress",
          "type": "address"
        },
        {
          "indexed": false,
          "internalType": "uint256",
          "name": "timestamp",
          "type": "uint256"
        }
      ],
      "name": "TokenCreated",
      "type": "event"
    },
    {
      "anonymous": false,
      "inputs": [
        {
          "indexed": true,
          "internalType": "address",
          "name": "buyer",
          "type": "address"
        },
        {
          "indexed": false,
          "internalType": "address",
          "name": "token",
          "type": "address"
        },
        {
          "indexed": false,
          "internalType": "uint256",
          "name": "amount",
          "type": "uint256"
        }
      ],
      "name": "TokenPurchased",
      "type": "event"
    },
    {
      "anonymous": false,
      "inputs": [
        {
          "indexed": true,
          "internalType": "address",
          "name": "seller",
          "type": "address"
        },
        {
          "indexed": false,
          "internalType": "address",
          "name": "token",
          "type": "address"
        },
        {
          "indexed": false,
          "internalType": "uint256",
          "name": "amount",
          "type": "uint256"
        },
        {
          "indexed": false,
          "internalType": "uint256",
          "name": "idleReceived",
          "type": "uint256"
        }
      ],
      "name": "TokenSold",
      "type": "event"
    },
    {
      "inputs": [],
      "name": "TOKEN_PER_IDLE",
      "outputs": [
        {
          "internalType": "uint256",
          "name": "",
          "type": "uint256"
        }
      ],
      "stateMutability": "view",
      "type": "function"
    },
    {
      "inputs": [
        {
          "internalType": "uint256",
          "name": "",
          "type": "uint256"
        }
      ],
      "name": "allTokens",
      "outputs": [
        {
          "internalType": "address",
          "name": "",
          "type": "address"
        }
      ],
      "stateMutability": "view",
      "type": "function"
    },
    {
      "inputs": [
        {
          "internalType": "address",
          "name": "token",
          "type": "address"
        },
        {
          "internalType": "uint256",
          "name": "idleAmount",
          "type": "uint256"
        }
      ],
      "name": "buyToken",
      "outputs": [],
      "stateMutability": "nonpayable",
      "type": "function"
    },
    {
      "inputs": [
        {
          "internalType": "address",
          "name": "token",
          "type": "address"
        },
        {
          "internalType": "uint256",
          "name": "tokenAmount",
          "type": "uint256"
        }
      ],
      "name": "calculateIDLEForTokens",
      "outputs": [
        {
          "internalType": "uint256",
          "name": "",
          "type": "uint256"
        }
      ],
      "stateMutability": "view",
      "type": "function"
    },
    {
      "inputs": [
        {
          "internalType": "address",
          "name": "token",
          "type": "address"
        },
        {
          "internalType": "uint256",
          "name": "idleAmount",
          "type": "uint256"
        }
      ],
      "name": "calculateTokensForIDLE",
      "outputs": [
        {
          "internalType": "uint256",
          "name": "",
          "type": "uint256"
        }
      ],
      "stateMutability": "view",
      "type": "function"
    },
    {
      "inputs": [
        {
          "internalType": "string",
          "name": "name",
          "type": "string"
        },
        {
          "internalType": "string",
          "name": "symbol",
          "type": "string"
        },
        {
          "internalType": "uint256",
          "name": "idleAmount",
          "type": "uint256"
        }
      ],
      "name": "createToken",
      "outputs": [],
      "stateMutability": "nonpayable",
      "type": "function"
    },
    {
      "inputs": [],
      "name": "getAllTokens",
      "outputs": [
        {
          "internalType": "address[]",
          "name": "",
          "type": "address[]"
        }
      ],
      "stateMutability": "view",
      "type": "function"
    },
    {
      "inputs": [
        {
          "internalType": "address",
          "name": "token",
          "type": "address"
        }
      ],
      "name": "getCurrentPrice",
      "outputs": [
        {
          "internalType": "uint256",
          "name": "",
          "type": "uint256"
        }
      ],
      "stateMutability": "view",
      "type": "function"
    },
    {
      "inputs": [],
      "name": "idleToken",
      "outputs": [
        {
          "internalType": "contract IERC20",
          "name": "",
          "type": "address"
        }
      ],
      "stateMutability": "view",
      "type": "function"
    },
    {
      "inputs": [],
      "name": "owner",
      "outputs": [
        {
          "internalType": "address",
          "name": "",
          "type": "address"
        }
      ],
      "stateMutability": "view",
      "type": "function"
    },
    {
      "inputs": [],
      "name": "renounceOwnership",
      "outputs": [],
      "stateMutability": "nonpayable",
      "type": "function"
    },
    {
      "inputs": [
        {
          "internalType": "address",
          "name": "token",
          "type": "address"
        },
        {
          "internalType": "uint256",
          "name": "tokenAmount",
          "type": "uint256"
        }
      ],
      "name": "sellToken",
      "outputs": [],
      "stateMutability": "nonpayable",
      "type": "function"
    },
    {
      "inputs": [
        {
          "internalType": "address",
          "name": "",
          "type": "address"
        }
      ],
      "name": "tokenDetails",
      "outputs": [
        {
          "internalType": "string",
          "name": "name",
          "type": "string"
        },
        {
          "internalType": "string",
          "name": "symbol",
          "type": "string"
        },
        {
          "internalType": "uint256",
          "name": "totalSupply",
          "type": "uint256"
        },
        {
          "internalType": "address",
          "name": "owner",
          "type": "address"
        },
        {
          "internalType": "uint256",
          "name": "createdAt",
          "type": "uint256"
        }
      ],
      "stateMutability": "view",
      "type": "function"
    },
    {
      "inputs": [
        {
          "internalType": "address",
          "name": "newOwner",
          "type": "address"
        }
      ],
      "name": "transferOwnership",
      "outputs": [],
      "stateMutability": "nonpayable",
      "type": "function"
    },
    {
      "inputs": [
        {
          "internalType": "address",
          "name": "",
          "type": "address"
        }
      ],
      "name": "userTokens",
      "outputs": [
        {
          "internalType": "address",
          "name": "",
          "type": "address"
        }
      ],
      "stateMutability": "view",
      "type": "function"
    },
    {
      "inputs": [
        {
          "internalType": "uint256",
          "name": "amount",
          "type": "uint256"
        }
      ],
      "name": "withdrawIdle",
      "outputs": [],
      "stateMutability": "nonpayable",
      "type": "function"
    }
  ],
  "bytecode": "0x608060405234801561001057600080fd5b50604051613d8d380380613d8d83398181016040528101906100329190610224565b81600073ffffffffffffffffffffffffffffffffffffffff168173ffffffffffffffffffffffffffffffffffffffff16036100a55760006040517f1e4fbdf700000000000000000000000000000000000000000000000000000000815260040161009c9190610273565b60405180910390fd5b6100b4816100fd60201b60201c565b5080600160006101000a81548173ffffffffffffffffffffffffffffffffffffffff021916908373ffffffffffffffffffffffffffffffffffffffff160217905550505061028e565b60008060009054906101000a900473ffffffffffffffffffffffffffffffffffffffff169050816000806101000a81548173ffffffffffffffffffffffffffffffffffffffff021916908373ffffffffffffffffffffffffffffffffffffffff1602179055508173ffffffffffffffffffffffffffffffffffffffff168173ffffffffffffffffffffffffffffffffffffffff167f8be0079c531659141344cd1fd0a4f28419497f9722a3daafe3b4186f6b6457e060405160405180910390a35050565b600080fd5b600073ffffffffffffffffffffffffffffffffffffffff82169050919050565b60006101f1826101c6565b9050919050565b610201816101e6565b811461020c57600080fd5b50565b60008151905061021e816101f8565b92915050565b6000806040838503121561023b5761023a6101c1565b5b60006102498582860161020f565b925050602061025a8582860161020f565b9150509250929050565b61026d816101e6565b82525050565b60006020820190506102886000830184610264565b92915050565b613af08061029d6000396000f3fe608060405234801561001057600080fd5b50600436106101005760003560e01c806384cc315b11610097578063dd4be68311610066578063dd4be6831461029b578063ed498fa8146102cf578063f2fde38b146102ff578063f464e7db1461031b57610100565b806384cc315b146101ff5780638d92910f1461022f5780638da5cb5b1461024d578063c3814b7f1461026b57610100565b8063634282af116100d3578063634282af146101795780636580a05b146101a957806368f8fc10146101d9578063715018a6146101f557610100565b80632a5c792a146101055780632dd60c5e146101235780633a0741f2146101415780635b0605301461015d575b600080fd5b61010d610337565b60405161011a91906114b6565b60405180910390f35b61012b6103c5565b6040516101389190611537565b60405180910390f35b61015b6004803603810190610156919061159c565b6103eb565b005b6101776004803603810190610172919061170f565b61049e565b005b610193600480360381019061018e919061159c565b6107fe565b6040516101a091906117a9565b60405180910390f35b6101c360048036038101906101be91906117f0565b61083d565b6040516101d0919061183f565b60405180910390f35b6101f360048036038101906101ee91906117f0565b610873565b005b6101fd610b2e565b005b6102196004803603810190610214919061185a565b610b42565b604051610226919061183f565b60405180910390f35b610237610bc9565b604051610244919061183f565b60405180910390f35b610255610bd0565b60405161026291906117a9565b60405180910390f35b610285600480360381019061028091906117f0565b610bf9565b604051610292919061183f565b60405180910390f35b6102b560048036038101906102b0919061185a565b610c2f565b6040516102c6959493929190611906565b60405180910390f35b6102e960048036038101906102e4919061185a565b610d95565b6040516102f691906117a9565b60405180910390f35b6103196004803603810190610314919061185a565b610dc8565b005b610335600480360381019061033091906117f0565b610e4e565b005b606060028054806020026020016040519081016040528092919081815260200182805480156103bb57602002820191906000526020600020905b8160009054906101000a900473ffffffffffffffffffffffffffffffffffffffff1673ffffffffffffffffffffffffffffffffffffffff1681526020019060010190808311610371575b5050505050905090565b600160009054906101000a900473ffffffffffffffffffffffffffffffffffffffff1681565b6103f3611266565b600160009054906101000a900473ffffffffffffffffffffffffffffffffffffffff1673ffffffffffffffffffffffffffffffffffffffff1663a9059cbb610439610bd0565b836040518363ffffffff1660e01b8152600401610457929190611967565b6020604051808303816000875af1158015610476573d6000803e3d6000fd5b505050506040513d601f19601f8201168201806040525081019061049a91906119c8565b5050565b600081116104e1576040517f08c379a00000000000000000000000000000000000000000000000000000000081526004016104d890611a67565b60405180910390fd5b600160009054906101000a900473ffffffffffffffffffffffffffffffffffffffff1673ffffffffffffffffffffffffffffffffffffffff166323b872dd3330846040518463ffffffff1660e01b815260040161054093929190611a87565b6020604051808303816000875af115801561055f573d6000803e3d6000fd5b505050506040513d601f19601f8201168201806040525081019061058391906119c8565b506000838330604051610595906113b9565b6105a193929190611abe565b604051809103906000f0801580156105bd573d6000803e3d6000fd5b50905080600360003373ffffffffffffffffffffffffffffffffffffffff1673ffffffffffffffffffffffffffffffffffffffff16815260200190815260200160002060006101000a81548173ffffffffffffffffffffffffffffffffffffffff021916908373ffffffffffffffffffffffffffffffffffffffff1602179055506040518060a00160405280858152602001848152602001600081526020013373ffffffffffffffffffffffffffffffffffffffff16815260200142815250600460008373ffffffffffffffffffffffffffffffffffffffff1673ffffffffffffffffffffffffffffffffffffffff16815260200190815260200160002060008201518160000190816106d09190611d05565b5060208201518160010190816106e69190611d05565b506040820151816002015560608201518160030160006101000a81548173ffffffffffffffffffffffffffffffffffffffff021916908373ffffffffffffffffffffffffffffffffffffffff160217905550608082015181600401559050506002819080600181540180825580915050600190039060005260206000200160009091909190916101000a81548173ffffffffffffffffffffffffffffffffffffffff021916908373ffffffffffffffffffffffffffffffffffffffff1602179055503373ffffffffffffffffffffffffffffffffffffffff167ffde888083b38fe6deac8498d5daebda0d38d0d3e6167e434b633f955152766fa82426040516107f0929190611967565b60405180910390a250505050565b6002818154811061080e57600080fd5b906000526020600020016000915054906101000a900473ffffffffffffffffffffffffffffffffffffffff1681565b60008061084984610b42565b9050670de0b6b3a764000081846108609190611e06565b61086a9190611e77565b91505092915050565b600081116108b6576040517f08c379a00000000000000000000000000000000000000000000000000000000081526004016108ad90611a67565b60405180910390fd5b6000600460008473ffffffffffffffffffffffffffffffffffffffff1673ffffffffffffffffffffffffffffffffffffffff1681526020019081526020016000209050600073ffffffffffffffffffffffffffffffffffffffff168160030160009054906101000a900473ffffffffffffffffffffffffffffffffffffffff1673ffffffffffffffffffffffffffffffffffffffff160361098c576040517f08c379a000000000000000000000000000000000000000000000000000000000815260040161098390611ef4565b60405180910390fd5b60006109988484610bf9565b9050600160009054906101000a900473ffffffffffffffffffffffffffffffffffffffff1673ffffffffffffffffffffffffffffffffffffffff166323b872dd3330866040518463ffffffff1660e01b81526004016109f993929190611a87565b6020604051808303816000875af1158015610a18573d6000803e3d6000fd5b505050506040513d601f19601f82011682018060405250810190610a3c91906119c8565b508373ffffffffffffffffffffffffffffffffffffffff166340c10f1933836040518363ffffffff1660e01b8152600401610a78929190611967565b600060405180830381600087803b158015610a9257600080fd5b505af1158015610aa6573d6000803e3d6000fd5b50505050670de0b6b3a764000081610abe9190611e77565b826002016000828254610ad19190611f14565b925050819055503373ffffffffffffffffffffffffffffffffffffffff167f6f1484a4f7f63ca4907ad663391c1a0791c0a77cc97042c4a4b3162476c0ab108583604051610b20929190611967565b60405180910390a250505050565b610b36611266565b610b4060006112ed565b565b600080600460008473ffffffffffffffffffffffffffffffffffffffff1673ffffffffffffffffffffffffffffffffffffffff1681526020019081526020016000209050600081600201549050620186a0651b48eb57e00082610ba59190611e06565b610baf9190611e77565b651b48eb57e000610bc09190611f14565b92505050919050565b620249f081565b60008060009054906101000a900473ffffffffffffffffffffffffffffffffffffffff16905090565b600080610c0584610b42565b905080670de0b6b3a764000084610c1c9190611e06565b610c269190611e77565b91505092915050565b6004602052806000526040600020600091509050806000018054610c5290611b32565b80601f0160208091040260200160405190810160405280929190818152602001828054610c7e90611b32565b8015610ccb5780601f10610ca057610100808354040283529160200191610ccb565b820191906000526020600020905b815481529060010190602001808311610cae57829003601f168201915b505050505090806001018054610ce090611b32565b80601f0160208091040260200160405190810160405280929190818152602001828054610d0c90611b32565b8015610d595780601f10610d2e57610100808354040283529160200191610d59565b820191906000526020600020905b815481529060010190602001808311610d3c57829003601f168201915b5050505050908060020154908060030160009054906101000a900473ffffffffffffffffffffffffffffffffffffffff16908060040154905085565b60036020528060005260406000206000915054906101000a900473ffffffffffffffffffffffffffffffffffffffff1681565b610dd0611266565b600073ffffffffffffffffffffffffffffffffffffffff168173ffffffffffffffffffffffffffffffffffffffff1603610e425760006040517f1e4fbdf7000000000000000000000000000000000000000000000000000000008152600401610e3991906117a9565b60405180910390fd5b610e4b816112ed565b50565b60008111610e91576040517f08c379a0000000000000000000000000000000000000000000000000000000008152600401610e8890611fba565b60405180910390fd5b6000600460008473ffffffffffffffffffffffffffffffffffffffff1673ffffffffffffffffffffffffffffffffffffffff1681526020019081526020016000209050600073ffffffffffffffffffffffffffffffffffffffff168160030160009054906101000a900473ffffffffffffffffffffffffffffffffffffffff1673ffffffffffffffffffffffffffffffffffffffff1603610f67576040517f08c379a0000000000000000000000000000000000000000000000000000000008152600401610f5e90611ef4565b60405180910390fd5b6000610f73848461083d565b905080600160009054906101000a900473ffffffffffffffffffffffffffffffffffffffff1673ffffffffffffffffffffffffffffffffffffffff166370a08231306040518263ffffffff1660e01b8152600401610fd191906117a9565b602060405180830381865afa158015610fee573d6000803e3d6000fd5b505050506040513d601f19601f820116820180604052508101906110129190611fef565b1015611053576040517f08c379a000000000000000000000000000000000000000000000000000000000815260040161104a90612068565b60405180910390fd5b8373ffffffffffffffffffffffffffffffffffffffff166323b872dd3330866040518463ffffffff1660e01b815260040161109093929190611a87565b6020604051808303816000875af11580156110af573d6000803e3d6000fd5b505050506040513d601f19601f820116820180604052508101906110d391906119c8565b508373ffffffffffffffffffffffffffffffffffffffff166342966c68846040518263ffffffff1660e01b815260040161110d919061183f565b600060405180830381600087803b15801561112757600080fd5b505af115801561113b573d6000803e3d6000fd5b50505050670de0b6b3a7640000836111539190611e77565b8260020160008282546111669190612088565b92505081905550600160009054906101000a900473ffffffffffffffffffffffffffffffffffffffff1673ffffffffffffffffffffffffffffffffffffffff1663a9059cbb33836040518363ffffffff1660e01b81526004016111ca929190611967565b6020604051808303816000875af11580156111e9573d6000803e3d6000fd5b505050506040513d601f19601f8201168201806040525081019061120d91906119c8565b503373ffffffffffffffffffffffffffffffffffffffff167fa8a7473f10e62cf9687e243de1c3ac8b3cbc3dd04b96826beb3a65b595385814858584604051611258939291906120bc565b60405180910390a250505050565b61126e6113b1565b73ffffffffffffffffffffffffffffffffffffffff1661128c610bd0565b73ffffffffffffffffffffffffffffffffffffffff16146112eb576112af6113b1565b6040517f118cdaa70000000000000000000000000000000000000000000000000000000081526004016112e291906117a9565b60405180910390fd5b565b60008060009054906101000a900473ffffffffffffffffffffffffffffffffffffffff169050816000806101000a81548173ffffffffffffffffffffffffffffffffffffffff021916908373ffffffffffffffffffffffffffffffffffffffff1602179055508173ffffffffffffffffffffffffffffffffffffffff168173ffffffffffffffffffffffffffffffffffffffff167f8be0079c531659141344cd1fd0a4f28419497f9722a3daafe3b4186f6b6457e060405160405180910390a35050565b600033905090565b6119c7806120f483390190565b600081519050919050565b600082825260208201905092915050565b6000819050602082019050919050565b600073ffffffffffffffffffffffffffffffffffffffff82169050919050565b600061141d826113f2565b9050919050565b61142d81611412565b82525050565b600061143f8383611424565b60208301905092915050565b6000602082019050919050565b6000611463826113c6565b61146d81856113d1565b9350611478836113e2565b8060005b838110156114a95781516114908882611433565b975061149b8361144b565b92505060018101905061147c565b5085935050505092915050565b600060208201905081810360008301526114d08184611458565b905092915050565b6000819050919050565b60006114fd6114f86114f3846113f2565b6114d8565b6113f2565b9050919050565b600061150f826114e2565b9050919050565b600061152182611504565b9050919050565b61153181611516565b82525050565b600060208201905061154c6000830184611528565b92915050565b6000604051905090565b600080fd5b600080fd5b6000819050919050565b61157981611566565b811461158457600080fd5b50565b60008135905061159681611570565b92915050565b6000602082840312156115b2576115b161155c565b5b60006115c084828501611587565b91505092915050565b600080fd5b600080fd5b6000601f19601f8301169050919050565b7f4e487b7100000000000000000000000000000000000000000000000000000000600052604160045260246000fd5b61161c826115d3565b810181811067ffffffffffffffff8211171561163b5761163a6115e4565b5b80604052505050565b600061164e611552565b905061165a8282611613565b919050565b600067ffffffffffffffff82111561167a576116796115e4565b5b611683826115d3565b9050602081019050919050565b82818337600083830152505050565b60006116b26116ad8461165f565b611644565b9050828152602081018484840111156116ce576116cd6115ce565b5b6116d9848285611690565b509392505050565b600082601f8301126116f6576116f56115c9565b5b813561170684826020860161169f565b91505092915050565b6000806000606084860312156117285761172761155c565b5b600084013567ffffffffffffffff81111561174657611745611561565b5b611752868287016116e1565b935050602084013567ffffffffffffffff81111561177357611772611561565b5b61177f868287016116e1565b925050604061179086828701611587565b9150509250925092565b6117a381611412565b82525050565b60006020820190506117be600083018461179a565b92915050565b6117cd81611412565b81146117d857600080fd5b50565b6000813590506117ea816117c4565b92915050565b600080604083850312156118075761180661155c565b5b6000611815858286016117db565b925050602061182685828601611587565b9150509250929050565b61183981611566565b82525050565b60006020820190506118546000830184611830565b92915050565b6000602082840312156118705761186f61155c565b5b600061187e848285016117db565b91505092915050565b600081519050919050565b600082825260208201905092915050565b60005b838110156118c15780820151818401526020810190506118a6565b60008484015250505050565b60006118d882611887565b6118e28185611892565b93506118f28185602086016118a3565b6118fb816115d3565b840191505092915050565b600060a082019050818103600083015261192081886118cd565b9050818103602083015261193481876118cd565b90506119436040830186611830565b611950606083018561179a565b61195d6080830184611830565b9695505050505050565b600060408201905061197c600083018561179a565b6119896020830184611830565b9392505050565b60008115159050919050565b6119a581611990565b81146119b057600080fd5b50565b6000815190506119c28161199c565b92915050565b6000602082840312156119de576119dd61155c565b5b60006119ec848285016119b3565b91505092915050565b7f49444c4520616d6f756e74206d7573742062652067726561746572207468616e60008201527f207a65726f000000000000000000000000000000000000000000000000000000602082015250565b6000611a51602583611892565b9150611a5c826119f5565b604082019050919050565b60006020820190508181036000830152611a8081611a44565b9050919050565b6000606082019050611a9c600083018661179a565b611aa9602083018561179a565b611ab66040830184611830565b949350505050565b60006060820190508181036000830152611ad881866118cd565b90508181036020830152611aec81856118cd565b9050611afb604083018461179a565b949350505050565b7f4e487b7100000000000000000000000000000000000000000000000000000000600052602260045260246000fd5b60006002820490506001821680611b4a57607f821691505b602082108103611b5d57611b5c611b03565b5b50919050565b60008190508160005260206000209050919050565b60006020601f8301049050919050565b600082821b905092915050565b600060088302611bc57fffffffffffffffffffffffffffffffffffffffffffffffffffffffffffffffff82611b88565b611bcf8683611b88565b95508019841693508086168417925050509392505050565b6000611c02611bfd611bf884611566565b6114d8565b611566565b9050919050565b6000819050919050565b611c1c83611be7565b611c30611c2882611c09565b848454611b95565b825550505050565b600090565b611c45611c38565b611c50818484611c13565b505050565b5b81811015611c7457611c69600082611c3d565b600181019050611c56565b5050565b601f821115611cb957611c8a81611b63565b611c9384611b78565b81016020851015611ca2578190505b611cb6611cae85611b78565b830182611c55565b50505b505050565b600082821c905092915050565b6000611cdc60001984600802611cbe565b1980831691505092915050565b6000611cf58383611ccb565b9150826002028217905092915050565b611d0e82611887565b67ffffffffffffffff811115611d2757611d266115e4565b5b611d318254611b32565b611d3c828285611c78565b600060209050601f831160018114611d6f5760008415611d5d578287015190505b611d678582611ce9565b865550611dcf565b601f198416611d7d86611b63565b60005b82811015611da557848901518255600182019150602085019450602081019050611d80565b86831015611dc25784890151611dbe601f891682611ccb565b8355505b6001600288020188555050505b505050505050565b7f4e487b7100000000000000000000000000000000000000000000000000000000600052601160045260246000fd5b6000611e1182611566565b9150611e1c83611566565b9250828202611e2a81611566565b91508282048414831517611e4157611e40611dd7565b5b5092915050565b7f4e487b7100000000000000000000000000000000000000000000000000000000600052601260045260246000fd5b6000611e8282611566565b9150611e8d83611566565b925082611e9d57611e9c611e48565b5b828204905092915050565b7f546f6b656e20646f6573206e6f74206578697374000000000000000000000000600082015250565b6000611ede601483611892565b9150611ee982611ea8565b602082019050919050565b60006020820190508181036000830152611f0d81611ed1565b9050919050565b6000611f1f82611566565b9150611f2a83611566565b9250828201905080821115611f4257611f41611dd7565b5b92915050565b7f546f6b656e20616d6f756e74206d75737420626520677265617465722074686160008201527f6e207a65726f0000000000000000000000000000000000000000000000000000602082015250565b6000611fa4602683611892565b9150611faf82611f48565b604082019050919050565b60006020820190508181036000830152611fd381611f97565b9050919050565b600081519050611fe981611570565b92915050565b6000602082840312156120055761200461155c565b5b600061201384828501611fda565b91505092915050565b7f4e6f7420656e6f7567682049444c4520696e2072657365727665000000000000600082015250565b6000612052601a83611892565b915061205d8261201c565b602082019050919050565b6000602082019050818103600083015261208181612045565b9050919050565b600061209382611566565b915061209e83611566565b92508282039050818111156120b6576120b5611dd7565b5b92915050565b60006060820190506120d1600083018661179a565b6120de6020830185611830565b6120eb6040830184611830565b94935050505056fe608060405234801561001057600080fd5b506040516119c73803806119c78339818101604052810190610032919061037a565b80838381600390816100449190610626565b5080600490816100549190610626565b505050600073ffffffffffffffffffffffffffffffffffffffff168173ffffffffffffffffffffffffffffffffffffffff16036100c95760006040517f1e4fbdf70000000000000000000000000000000000000000000000000000000081526004016100c09190610707565b60405180910390fd5b6100d8816100e160201b60201c565b50505050610722565b6000600560009054906101000a900473ffffffffffffffffffffffffffffffffffffffff16905081600560006101000a81548173ffffffffffffffffffffffffffffffffffffffff021916908373ffffffffffffffffffffffffffffffffffffffff1602179055508173ffffffffffffffffffffffffffffffffffffffff168173ffffffffffffffffffffffffffffffffffffffff167f8be0079c531659141344cd1fd0a4f28419497f9722a3daafe3b4186f6b6457e060405160405180910390a35050565b6000604051905090565b600080fd5b600080fd5b600080fd5b600080fd5b6000601f19601f8301169050919050565b7f4e487b7100000000000000000000000000000000000000000000000000000000600052604160045260246000fd5b61020e826101c5565b810181811067ffffffffffffffff8211171561022d5761022c6101d6565b5b80604052505050565b60006102406101a7565b905061024c8282610205565b919050565b600067ffffffffffffffff82111561026c5761026b6101d6565b5b610275826101c5565b9050602081019050919050565b60005b838110156102a0578082015181840152602081019050610285565b60008484015250505050565b60006102bf6102ba84610251565b610236565b9050828152602081018484840111156102db576102da6101c0565b5b6102e6848285610282565b509392505050565b600082601f830112610303576103026101bb565b5b81516103138482602086016102ac565b91505092915050565b600073ffffffffffffffffffffffffffffffffffffffff82169050919050565b60006103478261031c565b9050919050565b6103578161033c565b811461036257600080fd5b50565b6000815190506103748161034e565b92915050565b600080600060608486031215610393576103926101b1565b5b600084015167ffffffffffffffff8111156103b1576103b06101b6565b5b6103bd868287016102ee565b935050602084015167ffffffffffffffff8111156103de576103dd6101b6565b5b6103ea868287016102ee565b92505060406103fb86828701610365565b9150509250925092565b600081519050919050565b7f4e487b7100000000000000000000000000000000000000000000000000000000600052602260045260246000fd5b6000600282049050600182168061045757607f821691505b60208210810361046a57610469610410565b5b50919050565b60008190508160005260206000209050919050565b60006020601f8301049050919050565b600082821b905092915050565b6000600883026104d27fffffffffffffffffffffffffffffffffffffffffffffffffffffffffffffffff82610495565b6104dc8683610495565b95508019841693508086168417925050509392505050565b6000819050919050565b6000819050919050565b600061052361051e610519846104f4565b6104fe565b6104f4565b9050919050565b6000819050919050565b61053d83610508565b6105516105498261052a565b8484546104a2565b825550505050565b600090565b610566610559565b610571818484610534565b505050565b5b818110156105955761058a60008261055e565b600181019050610577565b5050565b601f8211156105da576105ab81610470565b6105b484610485565b810160208510156105c3578190505b6105d76105cf85610485565b830182610576565b50505b505050565b600082821c905092915050565b60006105fd600019846008026105df565b1980831691505092915050565b600061061683836105ec565b9150826002028217905092915050565b61062f82610405565b67ffffffffffffffff811115610648576106476101d6565b5b610652825461043f565b61065d828285610599565b600060209050601f831160018114610690576000841561067e578287015190505b610688858261060a565b8655506106f0565b601f19841661069e86610470565b60005b828110156106c6578489015182556001820191506020850194506020810190506106a1565b868310156106e357848901516106df601f8916826105ec565b8355505b6001600288020188555050505b505050505050565b6107018161033c565b82525050565b600060208201905061071c60008301846106f8565b92915050565b611296806107316000396000f3fe608060405234801561001057600080fd5b50600436106100ea5760003560e01c806370a082311161008c57806395d89b411161006657806395d89b4114610239578063a9059cbb14610257578063dd62ed3e14610287578063f2fde38b146102b7576100ea565b806370a08231146101e1578063715018a6146102115780638da5cb5b1461021b576100ea565b806323b872dd116100c857806323b872dd1461015b578063313ce5671461018b57806340c10f19146101a957806342966c68146101c5576100ea565b806306fdde03146100ef578063095ea7b31461010d57806318160ddd1461013d575b600080fd5b6100f76102d3565b6040516101049190610ebd565b60405180910390f35b61012760048036038101906101229190610f78565b610365565b6040516101349190610fd3565b60405180910390f35b610145610388565b6040516101529190610ffd565b60405180910390f35b61017560048036038101906101709190611018565b610392565b6040516101829190610fd3565b60405180910390f35b6101936103c1565b6040516101a09190611087565b60405180910390f35b6101c360048036038101906101be9190610f78565b6103ca565b005b6101df60048036038101906101da91906110a2565b6103e0565b005b6101fb60048036038101906101f691906110cf565b6103f5565b6040516102089190610ffd565b60405180910390f35b61021961043d565b005b610223610451565b604051610230919061110b565b60405180910390f35b61024161047b565b60405161024e9190610ebd565b60405180910390f35b610271600480360381019061026c9190610f78565b61050d565b60405161027e9190610fd3565b60405180910390f35b6102a1600480360381019061029c9190611126565b610530565b6040516102ae9190610ffd565b60405180910390f35b6102d160048036038101906102cc91906110cf565b6105b7565b005b6060600380546102e290611195565b80601f016020809104026020016040519081016040528092919081815260200182805461030e90611195565b801561035b5780601f106103305761010080835404028352916020019161035b565b820191906000526020600020905b81548152906001019060200180831161033e57829003601f168201915b5050505050905090565b60008061037061063d565b905061037d818585610645565b600191505092915050565b6000600254905090565b60008061039d61063d565b90506103aa858285610657565b6103b58585856106ec565b60019150509392505050565b60006012905090565b6103d26107e0565b6103dc8282610867565b5050565b6103e86107e0565b6103f230826108e9565b50565b60008060008373ffffffffffffffffffffffffffffffffffffffff1673ffffffffffffffffffffffffffffffffffffffff168152602001908152602001600020549050919050565b6104456107e0565b61044f600061096b565b565b6000600560009054906101000a900473ffffffffffffffffffffffffffffffffffffffff16905090565b60606004805461048a90611195565b80601f01602080910402602001604051908101604052809291908181526020018280546104b690611195565b80156105035780601f106104d857610100808354040283529160200191610503565b820191906000526020600020905b8154815290600101906020018083116104e657829003601f168201915b5050505050905090565b60008061051861063d565b90506105258185856106ec565b600191505092915050565b6000600160008473ffffffffffffffffffffffffffffffffffffffff1673ffffffffffffffffffffffffffffffffffffffff16815260200190815260200160002060008373ffffffffffffffffffffffffffffffffffffffff1673ffffffffffffffffffffffffffffffffffffffff16815260200190815260200160002054905092915050565b6105bf6107e0565b600073ffffffffffffffffffffffffffffffffffffffff168173ffffffffffffffffffffffffffffffffffffffff16036106315760006040517f1e4fbdf7000000000000000000000000000000000000000000000000000000008152600401610628919061110b565b60405180910390fd5b61063a8161096b565b50565b600033905090565b6106528383836001610a31565b505050565b60006106638484610530565b90507fffffffffffffffffffffffffffffffffffffffffffffffffffffffffffffffff8110156106e657818110156106d6578281836040517ffb8f41b20000000000000000000000000000000000000000000000000000000081526004016106cd939291906111c6565b60405180910390fd5b6106e584848484036000610a31565b5b50505050565b600073ffffffffffffffffffffffffffffffffffffffff168373ffffffffffffffffffffffffffffffffffffffff160361075e5760006040517f96c6fd1e000000000000000000000000000000000000000000000000000000008152600401610755919061110b565b60405180910390fd5b600073ffffffffffffffffffffffffffffffffffffffff168273ffffffffffffffffffffffffffffffffffffffff16036107d05760006040517fec442f050000000000000000000000000000000000000000000000000000000081526004016107c7919061110b565b60405180910390fd5b6107db838383610c08565b505050565b6107e861063d565b73ffffffffffffffffffffffffffffffffffffffff16610806610451565b73ffffffffffffffffffffffffffffffffffffffff16146108655761082961063d565b6040517f118cdaa700000000000000000000000000000000000000000000000000000000815260040161085c919061110b565b60405180910390fd5b565b600073ffffffffffffffffffffffffffffffffffffffff168273ffffffffffffffffffffffffffffffffffffffff16036108d95760006040517fec442f050000000000000000000000000000000000000000000000000000000081526004016108d0919061110b565b60405180910390fd5b6108e560008383610c08565b5050565b600073ffffffffffffffffffffffffffffffffffffffff168273ffffffffffffffffffffffffffffffffffffffff160361095b5760006040517f96c6fd1e000000000000000000000000000000000000000000000000000000008152600401610952919061110b565b60405180910390fd5b61096782600083610c08565b5050565b6000600560009054906101000a900473ffffffffffffffffffffffffffffffffffffffff16905081600560006101000a81548173ffffffffffffffffffffffffffffffffffffffff021916908373ffffffffffffffffffffffffffffffffffffffff1602179055508173ffffffffffffffffffffffffffffffffffffffff168173ffffffffffffffffffffffffffffffffffffffff167f8be0079c531659141344cd1fd0a4f28419497f9722a3daafe3b4186f6b6457e060405160405180910390a35050565b600073ffffffffffffffffffffffffffffffffffffffff168473ffffffffffffffffffffffffffffffffffffffff1603610aa35760006040517fe602df05000000000000000000000000000000000000000000000000000000008152600401610a9a919061110b565b60405180910390fd5b600073ffffffffffffffffffffffffffffffffffffffff168373ffffffffffffffffffffffffffffffffffffffff1603610b155760006040517f94280d62000000000000000000000000000000000000000000000000000000008152600401610b0c919061110b565b60405180910390fd5b81600160008673ffffffffffffffffffffffffffffffffffffffff1673ffffffffffffffffffffffffffffffffffffffff16815260200190815260200160002060008573ffffffffffffffffffffffffffffffffffffffff1673ffffffffffffffffffffffffffffffffffffffff168152602001908152602001600020819055508015610c02578273ffffffffffffffffffffffffffffffffffffffff168473ffffffffffffffffffffffffffffffffffffffff167f8c5be1e5ebec7d5bd14f71427d1e84f3dd0314c0f7b2291e5b200ac8c7c3b92584604051610bf99190610ffd565b60405180910390a35b50505050565b600073ffffffffffffffffffffffffffffffffffffffff168373ffffffffffffffffffffffffffffffffffffffff1603610c5a578060026000828254610c4e919061122c565b92505081905550610d2d565b60008060008573ffffffffffffffffffffffffffffffffffffffff1673ffffffffffffffffffffffffffffffffffffffff16815260200190815260200160002054905081811015610ce6578381836040517fe450d38c000000000000000000000000000000000000000000000000000000008152600401610cdd939291906111c6565b60405180910390fd5b8181036000808673ffffffffffffffffffffffffffffffffffffffff1673ffffffffffffffffffffffffffffffffffffffff16815260200190815260200160002081905550505b600073ffffffffffffffffffffffffffffffffffffffff168273ffffffffffffffffffffffffffffffffffffffff1603610d765780600260008282540392505081905550610dc3565b806000808473ffffffffffffffffffffffffffffffffffffffff1673ffffffffffffffffffffffffffffffffffffffff168152602001908152602001600020600082825401925050819055505b8173ffffffffffffffffffffffffffffffffffffffff168373ffffffffffffffffffffffffffffffffffffffff167fddf252ad1be2c89b69c2b068fc378daa952ba7f163c4a11628f55a4df523b3ef83604051610e209190610ffd565b60405180910390a3505050565b600081519050919050565b600082825260208201905092915050565b60005b83811015610e67578082015181840152602081019050610e4c565b60008484015250505050565b6000601f19601f8301169050919050565b6000610e8f82610e2d565b610e998185610e38565b9350610ea9818560208601610e49565b610eb281610e73565b840191505092915050565b60006020820190508181036000830152610ed78184610e84565b905092915050565b600080fd5b600073ffffffffffffffffffffffffffffffffffffffff82169050919050565b6000610f0f82610ee4565b9050919050565b610f1f81610f04565b8114610f2a57600080fd5b50565b600081359050610f3c81610f16565b92915050565b6000819050919050565b610f5581610f42565b8114610f6057600080fd5b50565b600081359050610f7281610f4c565b92915050565b60008060408385031215610f8f57610f8e610edf565b5b6000610f9d85828601610f2d565b9250506020610fae85828601610f63565b9150509250929050565b60008115159050919050565b610fcd81610fb8565b82525050565b6000602082019050610fe86000830184610fc4565b92915050565b610ff781610f42565b82525050565b60006020820190506110126000830184610fee565b92915050565b60008060006060848603121561103157611030610edf565b5b600061103f86828701610f2d565b935050602061105086828701610f2d565b925050604061106186828701610f63565b9150509250925092565b600060ff82169050919050565b6110818161106b565b82525050565b600060208201905061109c6000830184611078565b92915050565b6000602082840312156110b8576110b7610edf565b5b60006110c684828501610f63565b91505092915050565b6000602082840312156110e5576110e4610edf565b5b60006110f384828501610f2d565b91505092915050565b61110581610f04565b82525050565b600060208201905061112060008301846110fc565b92915050565b6000806040838503121561113d5761113c610edf565b5b600061114b85828601610f2d565b925050602061115c85828601610f2d565b9150509250929050565b7f4e487b7100000000000000000000000000000000000000000000000000000000600052602260045260246000fd5b600060028204905060018216806111ad57607f821691505b6020821081036111c0576111bf611166565b5b50919050565b60006060820190506111db60008301866110fc565b6111e86020830185610fee565b6111f56040830184610fee565b949350505050565b7f4e487b7100000000000000000000000000000000000000000000000000000000600052601160045260246000fd5b600061123782610f42565b915061124283610f42565b925082820190508082111561125a576112596111fd565b5b9291505056fea2646970667358221220b1167c0a19ff744ea0e1aab867447b1a414669d90867b4179ed497424925ceed64736f6c634300081c0033a26469706673582212207ac242d851f09e49c74a34381f8675d99ce80047a4694ca9b2f4c67e8e13f2b764736f6c634300081c0033",
  "linkReferences": {},
  "deployedLinkReferences": {}
}