{
  "_format": "hh-sol-artifact-1",
  "contractName": "AIInteraction",
  "sourceName": "contracts/AIInteraction.sol",
  "abi": [
    {
      "inputs": [
        {
          "internalType": "address",
          "name": "_tokenAddress",
          "type": "address"
        }
      ],
      "stateMutability": "nonpayable",
      "type": "constructor"
    },
    {
      "anonymous": false,
      "inputs": [
        {
          "indexed": true,
          "internalType": "address",
          "name": "user",
          "type": "address"
        },
        {
          "indexed": false,
          "internalType": "string",
          "name": "message",
          "type": "string"
        },
        {
          "indexed": false,
          "internalType": "string",
          "name": "response",
          "type": "string"
        },
        {
          "indexed": false,
          "internalType": "uint256",
          "name": "timestamp",
          "type": "uint256"
        }
      ],
      "name": "InteractionRecorded",
      "type": "event"
    },
    {
      "inputs": [
        {
          "internalType": "address",
          "name": "user",
          "type": "address"
        }
      ],
      "name": "checkTokenBalance",
      "outputs": [
        {
          "internalType": "uint256",
          "name": "",
          "type": "uint256"
        }
      ],
      "stateMutability": "view",
      "type": "function"
    },
    {
      "inputs": [
        {
          "internalType": "string",
          "name": "message",
          "type": "string"
        },
        {
          "internalType": "string",
          "name": "response",
          "type": "string"
        }
      ],
      "name": "interactWithAI",
      "outputs": [],
      "stateMutability": "nonpayable",
      "type": "function"
    },
    {
      "inputs": [],
      "name": "owner",
      "outputs": [
        {
          "internalType": "address",
          "name": "",
          "type": "address"
        }
      ],
      "stateMutability": "view",
      "type": "function"
    },
    {
      "inputs": [
        {
          "internalType": "address",
          "name": "_tokenAddress",
          "type": "address"
        }
      ],
      "name": "setTokenAddress",
      "outputs": [],
      "stateMutability": "nonpayable",
      "type": "function"
    },
    {
      "inputs": [],
      "name": "tokenAddress",
      "outputs": [
        {
          "internalType": "address",
          "name": "",
          "type": "address"
        }
      ],
      "stateMutability": "view",
      "type": "function"
    }
  ],
  "bytecode": "0x608060405234801561001057600080fd5b50604051610a58380380610a588339818101604052810190610032919061011c565b806000806101000a81548173ffffffffffffffffffffffffffffffffffffffff021916908373ffffffffffffffffffffffffffffffffffffffff16021790555033600160006101000a81548173ffffffffffffffffffffffffffffffffffffffff021916908373ffffffffffffffffffffffffffffffffffffffff16021790555050610149565b600080fd5b600073ffffffffffffffffffffffffffffffffffffffff82169050919050565b60006100e9826100be565b9050919050565b6100f9816100de565b811461010457600080fd5b50565b600081519050610116816100f0565b92915050565b600060208284031215610132576101316100b9565b5b600061014084828501610107565b91505092915050565b610900806101586000396000f3fe608060405234801561001057600080fd5b50600436106100575760003560e01c8063126cbe601461005c57806326a4e8d21461008c57806386d4281b146100a85780638da5cb5b146100c45780639d76ea58146100e2575b600080fd5b61007660048036038101906100719190610466565b610100565b60405161008391906104ac565b60405180910390f35b6100a660048036038101906100a19190610466565b6101a4565b005b6100c260048036038101906100bd919061060d565b610277565b005b6100cc6103aa565b6040516100d99190610694565b60405180910390f35b6100ea6103d0565b6040516100f79190610694565b60405180910390f35b60008060009054906101000a900473ffffffffffffffffffffffffffffffffffffffff1673ffffffffffffffffffffffffffffffffffffffff166370a08231836040518263ffffffff1660e01b815260040161015c9190610694565b602060405180830381865afa158015610179573d6000803e3d6000fd5b505050506040513d601f19601f8201168201806040525081019061019d91906106db565b9050919050565b600160009054906101000a900473ffffffffffffffffffffffffffffffffffffffff1673ffffffffffffffffffffffffffffffffffffffff163373ffffffffffffffffffffffffffffffffffffffff1614610234576040517f08c379a000000000000000000000000000000000000000000000000000000000815260040161022b90610765565b60405180910390fd5b806000806101000a81548173ffffffffffffffffffffffffffffffffffffffff021916908373ffffffffffffffffffffffffffffffffffffffff16021790555050565b60008060009054906101000a900473ffffffffffffffffffffffffffffffffffffffff1673ffffffffffffffffffffffffffffffffffffffff166370a08231336040518263ffffffff1660e01b81526004016102d39190610694565b602060405180830381865afa1580156102f0573d6000803e3d6000fd5b505050506040513d601f19601f8201168201806040525081019061031491906106db565b11610354576040517f08c379a000000000000000000000000000000000000000000000000000000000815260040161034b906107f7565b60405180910390fd5b3373ffffffffffffffffffffffffffffffffffffffff167f51c2e31b95ce84ed6ec0351a04500d98d343141931a2faa8809297bcc31391ea83834260405161039e93929190610885565b60405180910390a25050565b600160009054906101000a900473ffffffffffffffffffffffffffffffffffffffff1681565b60008054906101000a900473ffffffffffffffffffffffffffffffffffffffff1681565b6000604051905090565b600080fd5b600080fd5b600073ffffffffffffffffffffffffffffffffffffffff82169050919050565b600061043382610408565b9050919050565b61044381610428565b811461044e57600080fd5b50565b6000813590506104608161043a565b92915050565b60006020828403121561047c5761047b6103fe565b5b600061048a84828501610451565b91505092915050565b6000819050919050565b6104a681610493565b82525050565b60006020820190506104c1600083018461049d565b92915050565b600080fd5b600080fd5b6000601f19601f8301169050919050565b7f4e487b7100000000000000000000000000000000000000000000000000000000600052604160045260246000fd5b61051a826104d1565b810181811067ffffffffffffffff82111715610539576105386104e2565b5b80604052505050565b600061054c6103f4565b90506105588282610511565b919050565b600067ffffffffffffffff821115610578576105776104e2565b5b610581826104d1565b9050602081019050919050565b82818337600083830152505050565b60006105b06105ab8461055d565b610542565b9050828152602081018484840111156105cc576105cb6104cc565b5b6105d784828561058e565b509392505050565b600082601f8301126105f4576105f36104c7565b5b813561060484826020860161059d565b91505092915050565b60008060408385031215610624576106236103fe565b5b600083013567ffffffffffffffff81111561064257610641610403565b5b61064e858286016105df565b925050602083013567ffffffffffffffff81111561066f5761066e610403565b5b61067b858286016105df565b9150509250929050565b61068e81610428565b82525050565b60006020820190506106a96000830184610685565b92915050565b6106b881610493565b81146106c357600080fd5b50565b6000815190506106d5816106af565b92915050565b6000602082840312156106f1576106f06103fe565b5b60006106ff848285016106c6565b91505092915050565b600082825260208201905092915050565b7f4e6f7420636f6e7472616374206f776e65720000000000000000000000000000600082015250565b600061074f601283610708565b915061075a82610719565b602082019050919050565b6000602082019050818103600083015261077e81610742565b9050919050565b7f596f75206e65656420746f206f776e2074686520746f6b656e20746f20696e7460008201527f6572616374207769746820414900000000000000000000000000000000000000602082015250565b60006107e1602d83610708565b91506107ec82610785565b604082019050919050565b60006020820190508181036000830152610810816107d4565b9050919050565b600081519050919050565b60005b83811015610840578082015181840152602081019050610825565b60008484015250505050565b600061085782610817565b6108618185610708565b9350610871818560208601610822565b61087a816104d1565b840191505092915050565b6000606082019050818103600083015261089f818661084c565b905081810360208301526108b3818561084c565b90506108c2604083018461049d565b94935050505056fea2646970667358221220a3aba3f14192c93dc89e9040c4310af50f165e8f9090281a99b0b9c9d3e05d9264736f6c634300081c0033",
  "linkReferences": {},
  "deployedLinkReferences": {}
}